{
  "_format": "hh-sol-artifact-1",
  "contractName": "Crowdsale",
  "sourceName": "contracts/CrowdSale.sol",
  "abi": [
    {
      "inputs": [
        {
          "internalType": "uint256",
          "name": "lockTime",
          "type": "uint256"
        },
        {
          "internalType": "uint256",
          "name": "rate_",
          "type": "uint256"
        },
        {
          "internalType": "address payable",
          "name": "wallet_",
          "type": "address"
        },
        {
          "internalType": "contract IERC20",
          "name": "token_",
          "type": "address"
        },
        {
          "internalType": "address payable",
          "name": "manager_",
          "type": "address"
        },
        {
          "internalType": "uint256",
          "name": "_min",
          "type": "uint256"
        },
        {
          "internalType": "uint256",
          "name": "_max",
          "type": "uint256"
        }
      ],
      "stateMutability": "nonpayable",
      "type": "constructor"
    },
    {
      "anonymous": false,
      "inputs": [
        {
          "indexed": true,
          "internalType": "address",
          "name": "purchaser",
          "type": "address"
        },
        {
          "indexed": true,
          "internalType": "address",
          "name": "beneficiary",
          "type": "address"
        },
        {
          "indexed": false,
          "internalType": "uint256",
          "name": "value",
          "type": "uint256"
        },
        {
          "indexed": false,
          "internalType": "uint256",
          "name": "amount",
          "type": "uint256"
        }
      ],
      "name": "TokensPurchased",
      "type": "event"
    },
    {
      "stateMutability": "payable",
      "type": "fallback"
    },
    {
      "inputs": [],
      "name": "Finalize",
      "outputs": [
        {
          "internalType": "bool",
          "name": "",
          "type": "bool"
        }
      ],
      "stateMutability": "nonpayable",
      "type": "function"
    },
    {
      "inputs": [],
      "name": "_buyable",
      "outputs": [
        {
          "internalType": "bool",
          "name": "",
          "type": "bool"
        }
      ],
      "stateMutability": "view",
      "type": "function"
    },
    {
      "inputs": [],
      "name": "_manager",
      "outputs": [
        {
          "internalType": "address payable",
          "name": "",
          "type": "address"
        }
      ],
      "stateMutability": "view",
      "type": "function"
    },
    {
      "inputs": [],
      "name": "balance",
      "outputs": [
        {
          "internalType": "uint256",
          "name": "",
          "type": "uint256"
        }
      ],
      "stateMutability": "view",
      "type": "function"
    },
    {
      "inputs": [],
      "name": "buyTokens",
      "outputs": [],
      "stateMutability": "payable",
      "type": "function"
    },
    {
      "inputs": [],
      "name": "buyable",
      "outputs": [
        {
          "internalType": "bool",
          "name": "",
          "type": "bool"
        }
      ],
      "stateMutability": "nonpayable",
      "type": "function"
    },
    {
      "inputs": [],
      "name": "claim",
      "outputs": [],
      "stateMutability": "payable",
      "type": "function"
    },
    {
      "inputs": [],
      "name": "finalized",
      "outputs": [
        {
          "internalType": "bool",
          "name": "",
          "type": "bool"
        }
      ],
      "stateMutability": "view",
      "type": "function"
    },
    {
      "inputs": [],
      "name": "max",
      "outputs": [
        {
          "internalType": "uint256",
          "name": "",
          "type": "uint256"
        }
      ],
      "stateMutability": "view",
      "type": "function"
    },
    {
      "inputs": [],
      "name": "maxBuy",
      "outputs": [
        {
          "internalType": "uint256",
          "name": "",
          "type": "uint256"
        }
      ],
      "stateMutability": "view",
      "type": "function"
    },
    {
      "inputs": [],
      "name": "min",
      "outputs": [
        {
          "internalType": "uint256",
          "name": "",
          "type": "uint256"
        }
      ],
      "stateMutability": "view",
      "type": "function"
    },
    {
      "inputs": [],
      "name": "minBuy",
      "outputs": [
        {
          "internalType": "uint256",
          "name": "",
          "type": "uint256"
        }
      ],
      "stateMutability": "view",
      "type": "function"
    },
    {
      "inputs": [],
      "name": "rate",
      "outputs": [
        {
          "internalType": "uint256",
          "name": "",
          "type": "uint256"
        }
      ],
      "stateMutability": "view",
      "type": "function"
    },
    {
      "inputs": [],
      "name": "success",
      "outputs": [
        {
          "internalType": "bool",
          "name": "",
          "type": "bool"
        }
      ],
      "stateMutability": "view",
      "type": "function"
    },
    {
      "inputs": [],
      "name": "token",
      "outputs": [
        {
          "internalType": "contract IERC20",
          "name": "",
          "type": "address"
        }
      ],
      "stateMutability": "view",
      "type": "function"
    },
    {
      "inputs": [],
      "name": "wallet",
      "outputs": [
        {
          "internalType": "address payable",
          "name": "",
          "type": "address"
        }
      ],
      "stateMutability": "view",
      "type": "function"
    },
    {
      "inputs": [],
      "name": "weiRaised",
      "outputs": [
        {
          "internalType": "uint256",
          "name": "",
          "type": "uint256"
        }
      ],
      "stateMutability": "view",
      "type": "function"
    },
    {
      "stateMutability": "payable",
      "type": "receive"
    }
  ],
  "bytecode": "0x60a06040526706f05b59d3b20000600855670de0b6b3a76400006009556001426200002b9190620004cd565b600f556213c680426200003f919062000470565b6010553480156200004f57600080fd5b5060405162002174380380620021748339818101604052810190620000759190620002c4565b600160008190555060008611620000c3576040517f08c379a0000000000000000000000000000000000000000000000000000000008152600401620000ba906200043d565b60405180910390fd5b600073ffffffffffffffffffffffffffffffffffffffff168473ffffffffffffffffffffffffffffffffffffffff16141562000136576040517f08c379a00000000000000000000000000000000000000000000000000000000081526004016200012d906200041b565b60405180910390fd5b8560058190555084600260006101000a81548173ffffffffffffffffffffffffffffffffffffffff021916908373ffffffffffffffffffffffffffffffffffffffff16021790555083600160006101000a81548173ffffffffffffffffffffffffffffffffffffffff021916908373ffffffffffffffffffffffffffffffffffffffff16021790555082600360006101000a81548173ffffffffffffffffffffffffffffffffffffffff021916908373ffffffffffffffffffffffffffffffffffffffff16021790555082600460006101000a81548173ffffffffffffffffffffffffffffffffffffffff021916908373ffffffffffffffffffffffffffffffffffffffff16021790555081600681905550806007819055506001876200025e9190620004cd565b426200026b919062000470565b608081815250505050505050505062000611565b6000815190506200029081620005c3565b92915050565b600081519050620002a781620005dd565b92915050565b600081519050620002be81620005f7565b92915050565b600080600080600080600060e0888a031215620002e057600080fd5b6000620002f08a828b01620002ad565b9750506020620003038a828b01620002ad565b9650506040620003168a828b016200027f565b9550506060620003298a828b0162000296565b94505060806200033c8a828b016200027f565b93505060a06200034f8a828b01620002ad565b92505060c0620003628a828b01620002ad565b91505092959891949750929550565b6000620003806024836200045f565b91507f43726f776473616c653a20746f6b656e20697320746865207a65726f2061646460008301527f72657373000000000000000000000000000000000000000000000000000000006020830152604082019050919050565b6000620003e86014836200045f565b91507f43726f776473616c653a207261746520697320300000000000000000000000006000830152602082019050919050565b60006020820190508181036000830152620004368162000371565b9050919050565b600060208201905081810360008301526200045881620003d9565b9050919050565b600082825260208201905092915050565b60006200047d826200058a565b91506200048a836200058a565b9250827fffffffffffffffffffffffffffffffffffffffffffffffffffffffffffffffff03821115620004c257620004c162000594565b5b828201905092915050565b6000620004da826200058a565b9150620004e7836200058a565b9250817fffffffffffffffffffffffffffffffffffffffffffffffffffffffffffffffff048311821515161562000523576200052262000594565b5b828202905092915050565b60006200053b826200056a565b9050919050565b60006200054f826200056a565b9050919050565b600062000563826200052e565b9050919050565b600073ffffffffffffffffffffffffffffffffffffffff82169050919050565b6000819050919050565b7f4e487b7100000000000000000000000000000000000000000000000000000000600052601160045260246000fd5b620005ce8162000542565b8114620005da57600080fd5b50565b620005e88162000556565b8114620005f457600080fd5b50565b62000602816200058a565b81146200060e57600080fd5b50565b608051611b476200062d60003960006107260152611b476000f3fe6080604052600436106101025760003560e01c806388c7e39711610095578063d0febe4c11610064578063d0febe4c146102fe578063f0329f6b14610308578063f889794514610333578063f9d10e771461035e578063fc0c546a1461038957610111565b806388c7e39714610252578063b3f05b971461027d578063b69ef8a8146102a8578063c5454d11146102d357610111565b8063521eb273116100d1578063521eb273146101a65780636ac5db19146101d157806370db69d6146101fc5780637107d7a61461022757610111565b80630b93381b1461011b5780632c4e722e146101465780634042b66f146101715780634e71d92d1461019c57610111565b366101115761010f6103b4565b005b6101196103b4565b005b34801561012757600080fd5b506101306106fd565b60405161013d91906116e9565b60405180910390f35b34801561015257600080fd5b5061015b610710565b60405161016891906118c1565b60405180910390f35b34801561017d57600080fd5b5061018661071a565b60405161019391906118c1565b60405180910390f35b6101a4610724565b005b3480156101b257600080fd5b506101bb61088b565b6040516101c891906116a5565b60405180910390f35b3480156101dd57600080fd5b506101e66108b5565b6040516101f391906118c1565b60405180910390f35b34801561020857600080fd5b506102116108bb565b60405161021e91906118c1565b60405180910390f35b34801561023357600080fd5b5061023c6108c1565b60405161024991906118c1565b60405180910390f35b34801561025e57600080fd5b506102676108c7565b60405161027491906116e9565b60405180910390f35b34801561028957600080fd5b50610292610904565b60405161029f91906116e9565b60405180910390f35b3480156102b457600080fd5b506102bd610917565b6040516102ca91906118c1565b60405180910390f35b3480156102df57600080fd5b506102e86109c9565b6040516102f591906116e9565b60405180910390f35b6103066103b4565b005b34801561031457600080fd5b5061031d610d31565b60405161032a91906116a5565b60405180910390f35b34801561033f57600080fd5b50610348610d57565b60405161035591906118c1565b60405180910390f35b34801561036a57600080fd5b50610373610d5d565b60405161038091906116e9565b60405180910390f35b34801561039557600080fd5b5061039e610d70565b6040516103ab9190611704565b60405180910390f35b600260005414156103fa576040517f08c379a00000000000000000000000000000000000000000000000000000000081526004016103f1906118a1565b60405180910390fd5b60026000819055504260105411610446576040517f08c379a000000000000000000000000000000000000000000000000000000000815260040161043d90611781565b60405180910390fd5b6000349050600854811015801561045f57506009548111155b61049e576040517f08c379a000000000000000000000000000000000000000000000000000000000815260040161049590611761565b60405180910390fd5b60006104a982610d9a565b905080600160009054906101000a900473ffffffffffffffffffffffffffffffffffffffff1673ffffffffffffffffffffffffffffffffffffffff166370a08231306040518263ffffffff1660e01b8152600401610507919061168a565b60206040518083038186803b15801561051f57600080fd5b505afa158015610533573d6000803e3d6000fd5b505050506040513d601f19601f8201168201806040525081019061055791906111fd565b1015610598576040517f08c379a000000000000000000000000000000000000000000000000000000000815260040161058f90611741565b60405180910390fd5b80600b546105a6919061190e565b600b819055506105c182600a54610db890919063ffffffff16565b600a8190555081600e60006105d4610dce565b73ffffffffffffffffffffffffffffffffffffffff1673ffffffffffffffffffffffffffffffffffffffff16815260200190815260200160002054610619919061190e565b600e6000610625610dce565b73ffffffffffffffffffffffffffffffffffffffff1673ffffffffffffffffffffffffffffffffffffffff1681526020019081526020016000208190555080600d60003373ffffffffffffffffffffffffffffffffffffffff1673ffffffffffffffffffffffffffffffffffffffff168152602001908152602001600020546106ae919061190e565b600d60003373ffffffffffffffffffffffffffffffffffffffff1673ffffffffffffffffffffffffffffffffffffffff1681526020019081526020016000208190555050506001600081905550565b600c60009054906101000a900460ff1681565b6000600554905090565b6000600a54905090565b7f0000000000000000000000000000000000000000000000000000000000000000421161075057600080fd5b600c60019054906101000a900460ff1661079f576040517f08c379a000000000000000000000000000000000000000000000000000000000815260040161079690611801565b60405180910390fd5b6000600d60006107ad610dce565b73ffffffffffffffffffffffffffffffffffffffff1673ffffffffffffffffffffffffffffffffffffffff1681526020019081526020016000205490506000811161082d576040517f08c379a0000000000000000000000000000000000000000000000000000000008152600401610824906117e1565b60405180910390fd5b61083e610838610dce565b82610dd6565b600d600061084a610dce565b73ffffffffffffffffffffffffffffffffffffffff1673ffffffffffffffffffffffffffffffffffffffff1681526020019081526020016000206000905550565b6000600260009054906101000a900473ffffffffffffffffffffffffffffffffffffffff16905090565b60075481565b60095481565b60085481565b60004260105411156108ef576001600c60026101000a81548160ff0219169083151502179055505b600c60029054906101000a900460ff16905090565b600c60019054906101000a900460ff1681565b6000600160009054906101000a900473ffffffffffffffffffffffffffffffffffffffff1673ffffffffffffffffffffffffffffffffffffffff166370a08231306040518263ffffffff1660e01b8152600401610974919061168a565b60206040518083038186803b15801561098c57600080fd5b505afa1580156109a0573d6000803e3d6000fd5b505050506040513d601f19601f820116820180604052508101906109c491906111fd565b905090565b60004260105410610a0f576040517f08c379a0000000000000000000000000000000000000000000000000000000008152600401610a0690611841565b60405180910390fd5b600c60019054906101000a900460ff1615610a5f576040517f08c379a0000000000000000000000000000000000000000000000000000000008152600401610a5690611821565b60405180910390fd5b600260009054906101000a900473ffffffffffffffffffffffffffffffffffffffff1673ffffffffffffffffffffffffffffffffffffffff16610aa0610dce565b73ffffffffffffffffffffffffffffffffffffffff1614610af6576040517f08c379a0000000000000000000000000000000000000000000000000000000008152600401610aed906117c1565b60405180910390fd5b600654600a5410610b21576001600c60006101000a81548160ff021916908315150217905550610b3d565b6000600c60006101000a81548160ff0219169083151502179055505b6000600b54600160009054906101000a900473ffffffffffffffffffffffffffffffffffffffff1673ffffffffffffffffffffffffffffffffffffffff166370a08231306040518263ffffffff1660e01b8152600401610b9d919061168a565b60206040518083038186803b158015610bb557600080fd5b505afa158015610bc9573d6000803e3d6000fd5b505050506040513d601f19601f82011682018060405250810190610bed91906111fd565b610bf791906119be565b9050610c68600360009054906101000a900473ffffffffffffffffffffffffffffffffffffffff1682600160009054906101000a900473ffffffffffffffffffffffffffffffffffffffff1673ffffffffffffffffffffffffffffffffffffffff16610de49092919063ffffffff16565b600460009054906101000a900473ffffffffffffffffffffffffffffffffffffffff1673ffffffffffffffffffffffffffffffffffffffff166325c99303826040518263ffffffff1660e01b8152600401610cc391906118c1565b600060405180830381600087803b158015610cdd57600080fd5b505af1158015610cf1573d6000803e3d6000fd5b50505050610d00600a54610e6a565b6001600c60016101000a81548160ff021916908315150217905550600c60009054906101000a900460ff1691505090565b600360009054906101000a900473ffffffffffffffffffffffffffffffffffffffff1681565b60065481565b600c60029054906101000a900460ff1681565b6000600160009054906101000a900473ffffffffffffffffffffffffffffffffffffffff16905090565b6000610db160055483610ed690919063ffffffff16565b9050919050565b60008183610dc6919061190e565b905092915050565b600033905090565b610de08282610eec565b5050565b610e658363a9059cbb60e01b8484604051602401610e039291906116c0565b604051602081830303815290604052907bffffffffffffffffffffffffffffffffffffffffffffffffffffffff19166020820180517bffffffffffffffffffffffffffffffffffffffffffffffffffffffff8381831617835250505050610f3d565b505050565b600260009054906101000a900473ffffffffffffffffffffffffffffffffffffffff1673ffffffffffffffffffffffffffffffffffffffff166108fc829081150290604051600060405180830381858888f19350505050158015610ed2573d6000803e3d6000fd5b5050565b60008183610ee49190611964565b905092915050565b610f398282600160009054906101000a900473ffffffffffffffffffffffffffffffffffffffff1673ffffffffffffffffffffffffffffffffffffffff16610de49092919063ffffffff16565b5050565b6000610f9f826040518060400160405280602081526020017f5361666545524332303a206c6f772d6c6576656c2063616c6c206661696c65648152508573ffffffffffffffffffffffffffffffffffffffff166110049092919063ffffffff16565b9050600081511115610fff5780806020019051810190610fbf91906111d4565b610ffe576040517f08c379a0000000000000000000000000000000000000000000000000000000008152600401610ff590611881565b60405180910390fd5b5b505050565b6060611013848460008561101c565b90509392505050565b606082471015611061576040517f08c379a0000000000000000000000000000000000000000000000000000000008152600401611058906117a1565b60405180910390fd5b61106a85611130565b6110a9576040517f08c379a00000000000000000000000000000000000000000000000000000000081526004016110a090611861565b60405180910390fd5b6000808673ffffffffffffffffffffffffffffffffffffffff1685876040516110d29190611673565b60006040518083038185875af1925050503d806000811461110f576040519150601f19603f3d011682016040523d82523d6000602084013e611114565b606091505b5091509150611124828286611143565b92505050949350505050565b600080823b905060008111915050919050565b60608315611153578290506111a3565b6000835111156111665782518084602001fd5b816040517f08c379a000000000000000000000000000000000000000000000000000000000815260040161119a919061171f565b60405180910390fd5b9392505050565b6000815190506111b981611ae3565b92915050565b6000815190506111ce81611afa565b92915050565b6000602082840312156111e657600080fd5b60006111f4848285016111aa565b91505092915050565b60006020828403121561120f57600080fd5b600061121d848285016111bf565b91505092915050565b61122f81611a04565b82525050565b61123e816119f2565b82525050565b61124d81611a16565b82525050565b600061125e826118dc565b61126881856118f2565b9350611278818560208601611a70565b80840191505092915050565b61128d81611a4c565b82525050565b600061129e826118e7565b6112a881856118fd565b93506112b8818560208601611a70565b6112c181611ad2565b840191505092915050565b60006112d9602e836118fd565b91507f62757920616d6f756e742065786365656473206e6f7420656e6f75676820546f60008301527f6b656e732072656d61696e696e670000000000000000000000000000000000006020830152604082019050919050565b600061133f6024836118fd565b91507f706c656173652073656e642076616c7565206163636f7264696e6720746f206c60008301527f696d6974000000000000000000000000000000000000000000000000000000006020830152604082019050919050565b60006113a5600b836118fd565b91507f6e6f742072756e6e696e670000000000000000000000000000000000000000006000830152602082019050919050565b60006113e56026836118fd565b91507f416464726573733a20696e73756666696369656e742062616c616e636520666f60008301527f722063616c6c00000000000000000000000000000000000000000000000000006020830152604082019050919050565b600061144b6015836118fd565b91507f796f7520617265206e6f7420746865206f776e657200000000000000000000006000830152602082019050919050565b600061148b6011836118fd565b91507f3020746f6b656e7320746f20636c61696d0000000000000000000000000000006000830152602082019050919050565b60006114cb6015836118fd565b91507f49434f206e6f742066696e616c697a65642079657400000000000000000000006000830152602082019050919050565b600061150b6011836118fd565b91507f616c72656164792066696e616c697a65640000000000000000000000000000006000830152602082019050919050565b600061154b601c836118fd565b91507f7468652063726f776453616c6520697320696e2070726f6772657373000000006000830152602082019050919050565b600061158b601d836118fd565b91507f416464726573733a2063616c6c20746f206e6f6e2d636f6e74726163740000006000830152602082019050919050565b60006115cb602a836118fd565b91507f5361666545524332303a204552433230206f7065726174696f6e20646964206e60008301527f6f742073756363656564000000000000000000000000000000000000000000006020830152604082019050919050565b6000611631601f836118fd565b91507f5265656e7472616e637947756172643a207265656e7472616e742063616c6c006000830152602082019050919050565b61166d81611a42565b82525050565b600061167f8284611253565b915081905092915050565b600060208201905061169f6000830184611235565b92915050565b60006020820190506116ba6000830184611226565b92915050565b60006040820190506116d56000830185611235565b6116e26020830184611664565b9392505050565b60006020820190506116fe6000830184611244565b92915050565b60006020820190506117196000830184611284565b92915050565b600060208201905081810360008301526117398184611293565b905092915050565b6000602082019050818103600083015261175a816112cc565b9050919050565b6000602082019050818103600083015261177a81611332565b9050919050565b6000602082019050818103600083015261179a81611398565b9050919050565b600060208201905081810360008301526117ba816113d8565b9050919050565b600060208201905081810360008301526117da8161143e565b9050919050565b600060208201905081810360008301526117fa8161147e565b9050919050565b6000602082019050818103600083015261181a816114be565b9050919050565b6000602082019050818103600083015261183a816114fe565b9050919050565b6000602082019050818103600083015261185a8161153e565b9050919050565b6000602082019050818103600083015261187a8161157e565b9050919050565b6000602082019050818103600083015261189a816115be565b9050919050565b600060208201905081810360008301526118ba81611624565b9050919050565b60006020820190506118d66000830184611664565b92915050565b600081519050919050565b600081519050919050565b600081905092915050565b600082825260208201905092915050565b600061191982611a42565b915061192483611a42565b9250827fffffffffffffffffffffffffffffffffffffffffffffffffffffffffffffffff0382111561195957611958611aa3565b5b828201905092915050565b600061196f82611a42565b915061197a83611a42565b9250817fffffffffffffffffffffffffffffffffffffffffffffffffffffffffffffffff04831182151516156119b3576119b2611aa3565b5b828202905092915050565b60006119c982611a42565b91506119d483611a42565b9250828210156119e7576119e6611aa3565b5b828203905092915050565b60006119fd82611a22565b9050919050565b6000611a0f82611a22565b9050919050565b60008115159050919050565b600073ffffffffffffffffffffffffffffffffffffffff82169050919050565b6000819050919050565b6000611a5782611a5e565b9050919050565b6000611a6982611a22565b9050919050565b60005b83811015611a8e578082015181840152602081019050611a73565b83811115611a9d576000848401525b50505050565b7f4e487b7100000000000000000000000000000000000000000000000000000000600052601160045260246000fd5b6000601f19601f8301169050919050565b611aec81611a16565b8114611af757600080fd5b50565b611b0381611a42565b8114611b0e57600080fd5b5056fea2646970667358221220778a2c1a281562459f0f4b09c87ffe3f9d51364a5095c339f24c9203842386ec64736f6c63430008000033",
  "linkReferences": {},
  "deployedLinkReferences": {}
}